{
  "_format": "hh-sol-artifact-1",
  "contractName": "SuperPiccellCore",
  "sourceName": "contracts/SuperPiccellCore.sol",
  "abi": [
    {
      "anonymous": false,
      "inputs": [
        {
          "indexed": false,
          "internalType": "uint256",
          "name": "id",
          "type": "uint256"
        },
        {
          "indexed": false,
          "internalType": "string",
          "name": "content",
          "type": "string"
        }
      ],
      "name": "ContentCreated",
      "type": "event"
    },
    {
      "anonymous": false,
      "inputs": [
        {
          "indexed": false,
          "internalType": "uint256",
          "name": "id",
          "type": "uint256"
        }
      ],
      "name": "ContentDeleted",
      "type": "event"
    },
    {
      "anonymous": false,
      "inputs": [
        {
          "indexed": false,
          "internalType": "uint256",
          "name": "id",
          "type": "uint256"
        },
        {
          "indexed": false,
          "internalType": "string",
          "name": "newContent",
          "type": "string"
        }
      ],
      "name": "ContentUpdated",
      "type": "event"
    },
    {
      "anonymous": false,
      "inputs": [
        {
          "indexed": true,
          "internalType": "address",
          "name": "previousOwner",
          "type": "address"
        },
        {
          "indexed": true,
          "internalType": "address",
          "name": "newOwner",
          "type": "address"
        }
      ],
      "name": "OwnershipTransferred",
      "type": "event"
    },
    {
      "stateMutability": "payable",
      "type": "fallback"
    },
    {
      "inputs": [
        {
          "internalType": "uint256",
          "name": "",
          "type": "uint256"
        }
      ],
      "name": "contents",
      "outputs": [
        {
          "internalType": "uint256",
          "name": "id",
          "type": "uint256"
        },
        {
          "internalType": "bool",
          "name": "exists",
          "type": "bool"
        },
        {
          "internalType": "string",
          "name": "encoding",
          "type": "string"
        },
        {
          "internalType": "string",
          "name": "contentType",
          "type": "string"
        },
        {
          "internalType": "string",
          "name": "content",
          "type": "string"
        },
        {
          "internalType": "string",
          "name": "revision",
          "type": "string"
        },
        {
          "internalType": "uint256",
          "name": "createdAt",
          "type": "uint256"
        },
        {
          "internalType": "address",
          "name": "createdBy",
          "type": "address"
        },
        {
          "internalType": "uint256",
          "name": "updatedAt",
          "type": "uint256"
        },
        {
          "internalType": "address",
          "name": "updatedBy",
          "type": "address"
        }
      ],
      "stateMutability": "view",
      "type": "function"
    },
    {
      "inputs": [
        {
          "internalType": "string",
          "name": "_encoding",
          "type": "string"
        },
        {
          "internalType": "string",
          "name": "_contentType",
          "type": "string"
        },
        {
          "internalType": "string",
          "name": "_content",
          "type": "string"
        },
        {
          "internalType": "string",
          "name": "_revision",
          "type": "string"
        }
      ],
      "name": "createContent",
      "outputs": [],
      "stateMutability": "nonpayable",
      "type": "function"
    },
    {
      "inputs": [
        {
          "internalType": "uint256",
          "name": "id",
          "type": "uint256"
        }
      ],
      "name": "deleteContent",
      "outputs": [],
      "stateMutability": "nonpayable",
      "type": "function"
    },
    {
      "inputs": [],
      "name": "getAllContents",
      "outputs": [
        {
          "components": [
            {
              "internalType": "uint256",
              "name": "id",
              "type": "uint256"
            },
            {
              "internalType": "bool",
              "name": "exists",
              "type": "bool"
            },
            {
              "internalType": "string",
              "name": "encoding",
              "type": "string"
            },
            {
              "internalType": "string",
              "name": "contentType",
              "type": "string"
            },
            {
              "internalType": "string",
              "name": "content",
              "type": "string"
            },
            {
              "internalType": "string",
              "name": "revision",
              "type": "string"
            },
            {
              "internalType": "uint256",
              "name": "createdAt",
              "type": "uint256"
            },
            {
              "internalType": "address",
              "name": "createdBy",
              "type": "address"
            },
            {
              "internalType": "uint256",
              "name": "updatedAt",
              "type": "uint256"
            },
            {
              "internalType": "address",
              "name": "updatedBy",
              "type": "address"
            }
          ],
          "internalType": "struct SuperPiccellCore.Content[]",
          "name": "",
          "type": "tuple[]"
        }
      ],
      "stateMutability": "view",
      "type": "function"
    },
    {
      "inputs": [
        {
          "internalType": "uint256",
          "name": "id",
          "type": "uint256"
        }
      ],
      "name": "getContent",
      "outputs": [
        {
          "components": [
            {
              "internalType": "uint256",
              "name": "id",
              "type": "uint256"
            },
            {
              "internalType": "bool",
              "name": "exists",
              "type": "bool"
            },
            {
              "internalType": "string",
              "name": "encoding",
              "type": "string"
            },
            {
              "internalType": "string",
              "name": "contentType",
              "type": "string"
            },
            {
              "internalType": "string",
              "name": "content",
              "type": "string"
            },
            {
              "internalType": "string",
              "name": "revision",
              "type": "string"
            },
            {
              "internalType": "uint256",
              "name": "createdAt",
              "type": "uint256"
            },
            {
              "internalType": "address",
              "name": "createdBy",
              "type": "address"
            },
            {
              "internalType": "uint256",
              "name": "updatedAt",
              "type": "uint256"
            },
            {
              "internalType": "address",
              "name": "updatedBy",
              "type": "address"
            }
          ],
          "internalType": "struct SuperPiccellCore.Content",
          "name": "",
          "type": "tuple"
        }
      ],
      "stateMutability": "view",
      "type": "function"
    },
    {
      "inputs": [
        {
          "internalType": "string",
          "name": "_contentType",
          "type": "string"
        }
      ],
      "name": "getContentsByContentType",
      "outputs": [
        {
          "components": [
            {
              "internalType": "uint256",
              "name": "id",
              "type": "uint256"
            },
            {
              "internalType": "bool",
              "name": "exists",
              "type": "bool"
            },
            {
              "internalType": "string",
              "name": "encoding",
              "type": "string"
            },
            {
              "internalType": "string",
              "name": "contentType",
              "type": "string"
            },
            {
              "internalType": "string",
              "name": "content",
              "type": "string"
            },
            {
              "internalType": "string",
              "name": "revision",
              "type": "string"
            },
            {
              "internalType": "uint256",
              "name": "createdAt",
              "type": "uint256"
            },
            {
              "internalType": "address",
              "name": "createdBy",
              "type": "address"
            },
            {
              "internalType": "uint256",
              "name": "updatedAt",
              "type": "uint256"
            },
            {
              "internalType": "address",
              "name": "updatedBy",
              "type": "address"
            }
          ],
          "internalType": "struct SuperPiccellCore.Content[]",
          "name": "",
          "type": "tuple[]"
        }
      ],
      "stateMutability": "view",
      "type": "function"
    },
    {
      "inputs": [],
      "name": "isProtected",
      "outputs": [
        {
          "internalType": "bool",
          "name": "",
          "type": "bool"
        }
      ],
      "stateMutability": "view",
      "type": "function"
    },
    {
      "inputs": [],
      "name": "nextContentId",
      "outputs": [
        {
          "internalType": "uint256",
          "name": "",
          "type": "uint256"
        }
      ],
      "stateMutability": "view",
      "type": "function"
    },
    {
      "inputs": [],
      "name": "owner",
      "outputs": [
        {
          "internalType": "address",
          "name": "",
          "type": "address"
        }
      ],
      "stateMutability": "view",
      "type": "function"
    },
    {
      "inputs": [],
      "name": "protectContract",
      "outputs": [],
      "stateMutability": "nonpayable",
      "type": "function"
    },
    {
      "inputs": [
        {
          "internalType": "contract IERC20",
          "name": "_token",
          "type": "address"
        },
        {
          "internalType": "uint256",
          "name": "_amount",
          "type": "uint256"
        }
      ],
      "name": "receiveToken",
      "outputs": [],
      "stateMutability": "nonpayable",
      "type": "function"
    },
    {
      "inputs": [],
      "name": "renounceOwnership",
      "outputs": [],
      "stateMutability": "nonpayable",
      "type": "function"
    },
    {
      "inputs": [
        {
          "internalType": "address",
          "name": "newOwner",
          "type": "address"
        }
      ],
      "name": "transferOwnership",
      "outputs": [],
      "stateMutability": "nonpayable",
      "type": "function"
    },
    {
      "inputs": [
        {
          "internalType": "uint256",
          "name": "id",
          "type": "uint256"
        },
        {
          "internalType": "string",
          "name": "_content",
          "type": "string"
        }
      ],
      "name": "updateContent",
      "outputs": [],
      "stateMutability": "nonpayable",
      "type": "function"
    },
    {
      "inputs": [],
      "name": "withdraw",
      "outputs": [],
      "stateMutability": "nonpayable",
      "type": "function"
    },
    {
      "inputs": [
        {
          "internalType": "contract IERC20",
          "name": "_token",
          "type": "address"
        }
      ],
      "name": "withdrawToken",
      "outputs": [],
      "stateMutability": "nonpayable",
      "type": "function"
    },
    {
      "stateMutability": "payable",
      "type": "receive"
    }
  ],
  "bytecode": "0x608060405260016002555f60035f6101000a81548160ff0219169083151502179055503480156200002e575f80fd5b506200004f620000436200005560201b60201c565b6200005c60201b60201c565b6200011d565b5f33905090565b5f805f9054906101000a900473ffffffffffffffffffffffffffffffffffffffff169050815f806101000a81548173ffffffffffffffffffffffffffffffffffffffff021916908373ffffffffffffffffffffffffffffffffffffffff1602179055508173ffffffffffffffffffffffffffffffffffffffff168173ffffffffffffffffffffffffffffffffffffffff167f8be0079c531659141344cd1fd0a4f28419497f9722a3daafe3b4186f6b6457e060405160405180910390a35050565b612b2e806200012b5f395ff3fe6080604052600436106100f6575f3560e01c8063715018a611610089578063b5ecf91211610058578063b5ecf912146102d9578063d82da9601461031e578063f2fde38b14610346578063fed216cb1461036e576100fd565b8063715018a614610249578063894760691461025f5780638da5cb5b1461028757806397235a1e146102b1576100fd565b80633ccfd60b116100c55780633ccfd60b146101b75780634455d45a146101cd5780635300f82b146102095780635a5d241414610233576100fd565b80630a248d7f146100ff5780630b7ad54c1461012957806325612dc6146101655780632892c4d81461018d576100fd565b366100fd57005b005b34801561010a575f80fd5b50610113610396565b6040516101209190611a31565b60405180910390f35b348015610134575f80fd5b5061014f600480360381019061014a9190611a85565b61039c565b60405161015c9190611c8e565b60405180910390f35b348015610170575f80fd5b5061018b60048036038101906101869190611dda565b610749565b005b348015610198575f80fd5b506101a161089f565b6040516101ae9190611fdb565b60405180910390f35b3480156101c2575f80fd5b506101cb6108bd565b005b3480156101d8575f80fd5b506101f360048036038101906101ee9190611ffb565b610917565b6040516102009190611fdb565b60405180910390f35b348015610214575f80fd5b5061021d610929565b60405161022a9190612051565b60405180910390f35b34801561023e575f80fd5b5061024761093b565b005b348015610254575f80fd5b5061025d61095f565b005b34801561026a575f80fd5b50610285600480360381019061028091906120a5565b610972565b005b348015610292575f80fd5b5061029b610a7c565b6040516102a891906120df565b60405180910390f35b3480156102bc575f80fd5b506102d760048036038101906102d291906120f8565b610aa3565b005b3480156102e4575f80fd5b506102ff60048036038101906102fa9190611a85565b610c72565b6040516103159a9998979695949392919061217e565b60405180910390f35b348015610329575f80fd5b50610344600480360381019061033f9190612234565b610f24565b005b348015610351575f80fd5b5061036c60048036038101906103679190612332565b611186565b005b348015610379575f80fd5b50610394600480360381019061038f9190611a85565b611208565b005b60025481565b6103a461199e565b60015f8381526020019081526020015f206001015f9054906101000a900460ff16610404576040517f08c379a00000000000000000000000000000000000000000000000000000000081526004016103fb906123a7565b60405180910390fd5b60015f8381526020019081526020015f20604051806101400160405290815f8201548152602001600182015f9054906101000a900460ff16151515158152602001600282018054610454906123f2565b80601f0160208091040260200160405190810160405280929190818152602001828054610480906123f2565b80156104cb5780601f106104a2576101008083540402835291602001916104cb565b820191905f5260205f20905b8154815290600101906020018083116104ae57829003601f168201915b505050505081526020016003820180546104e4906123f2565b80601f0160208091040260200160405190810160405280929190818152602001828054610510906123f2565b801561055b5780601f106105325761010080835404028352916020019161055b565b820191905f5260205f20905b81548152906001019060200180831161053e57829003601f168201915b50505050508152602001600482018054610574906123f2565b80601f01602080910402602001604051908101604052809291908181526020018280546105a0906123f2565b80156105eb5780601f106105c2576101008083540402835291602001916105eb565b820191905f5260205f20905b8154815290600101906020018083116105ce57829003601f168201915b50505050508152602001600582018054610604906123f2565b80601f0160208091040260200160405190810160405280929190818152602001828054610630906123f2565b801561067b5780601f106106525761010080835404028352916020019161067b565b820191905f5260205f20905b81548152906001019060200180831161065e57829003601f168201915b5050505050815260200160068201548152602001600782015f9054906101000a900473ffffffffffffffffffffffffffffffffffffffff1673ffffffffffffffffffffffffffffffffffffffff1673ffffffffffffffffffffffffffffffffffffffff16815260200160088201548152602001600982015f9054906101000a900473ffffffffffffffffffffffffffffffffffffffff1673ffffffffffffffffffffffffffffffffffffffff1673ffffffffffffffffffffffffffffffffffffffff16815250509050919050565b610751611324565b60035f9054906101000a900460ff16156107a0576040517f08c379a00000000000000000000000000000000000000000000000000000000081526004016107979061246c565b60405180910390fd5b5f60015f8481526020019081526020015f209050806001015f9054906101000a900460ff16610804576040517f08c379a00000000000000000000000000000000000000000000000000000000081526004016107fb906123a7565b60405180910390fd5b818160040190816108159190612627565b5042816008018190555033816009015f6101000a81548173ffffffffffffffffffffffffffffffffffffffff021916908373ffffffffffffffffffffffffffffffffffffffff1602179055507f4071afae07e623612645169abd4d62a6bd5932a996b14deac10d9903faccea5483836040516108929291906126f6565b60405180910390a1505050565b60606108b860405180602001604052805f8152506113a2565b905090565b6108c5611324565b5f4790506108d1610a7c565b73ffffffffffffffffffffffffffffffffffffffff166108fc8290811502906040515f60405180830381858888f19350505050158015610913573d5f803e3d5ffd5b5050565b6060610922826113a2565b9050919050565b60035f9054906101000a900460ff1681565b610943611324565b600160035f6101000a81548160ff021916908315150217905550565b610967611324565b6109705f6118d6565b565b61097a611324565b5f8173ffffffffffffffffffffffffffffffffffffffff166370a08231306040518263ffffffff1660e01b81526004016109b491906120df565b602060405180830381865afa1580156109cf573d5f803e3d5ffd5b505050506040513d601f19601f820116820180604052508101906109f39190612738565b90508173ffffffffffffffffffffffffffffffffffffffff1663a9059cbb610a19610a7c565b836040518363ffffffff1660e01b8152600401610a37929190612763565b6020604051808303815f875af1158015610a53573d5f803e3d5ffd5b505050506040513d601f19601f82011682018060405250810190610a7791906127b4565b505050565b5f805f9054906101000a900473ffffffffffffffffffffffffffffffffffffffff16905090565b610aab611324565b5f8273ffffffffffffffffffffffffffffffffffffffff166370a08231306040518263ffffffff1660e01b8152600401610ae591906120df565b602060405180830381865afa158015610b00573d5f803e3d5ffd5b505050506040513d601f19601f82011682018060405250810190610b249190612738565b90508273ffffffffffffffffffffffffffffffffffffffff166323b872dd3330856040518463ffffffff1660e01b8152600401610b63939291906127df565b6020604051808303815f875af1158015610b7f573d5f803e3d5ffd5b505050506040513d601f19601f82011682018060405250810190610ba391906127b4565b505f8373ffffffffffffffffffffffffffffffffffffffff166370a08231306040518263ffffffff1660e01b8152600401610bde91906120df565b602060405180830381865afa158015610bf9573d5f803e3d5ffd5b505050506040513d601f19601f82011682018060405250810190610c1d9190612738565b9050828282610c2c9190612841565b14610c6c576040517f08c379a0000000000000000000000000000000000000000000000000000000008152600401610c63906128be565b60405180910390fd5b50505050565b6001602052805f5260405f205f91509050805f015490806001015f9054906101000a900460ff1690806002018054610ca9906123f2565b80601f0160208091040260200160405190810160405280929190818152602001828054610cd5906123f2565b8015610d205780601f10610cf757610100808354040283529160200191610d20565b820191905f5260205f20905b815481529060010190602001808311610d0357829003601f168201915b505050505090806003018054610d35906123f2565b80601f0160208091040260200160405190810160405280929190818152602001828054610d61906123f2565b8015610dac5780601f10610d8357610100808354040283529160200191610dac565b820191905f5260205f20905b815481529060010190602001808311610d8f57829003601f168201915b505050505090806004018054610dc1906123f2565b80601f0160208091040260200160405190810160405280929190818152602001828054610ded906123f2565b8015610e385780601f10610e0f57610100808354040283529160200191610e38565b820191905f5260205f20905b815481529060010190602001808311610e1b57829003601f168201915b505050505090806005018054610e4d906123f2565b80601f0160208091040260200160405190810160405280929190818152602001828054610e79906123f2565b8015610ec45780601f10610e9b57610100808354040283529160200191610ec4565b820191905f5260205f20905b815481529060010190602001808311610ea757829003601f168201915b505050505090806006015490806007015f9054906101000a900473ffffffffffffffffffffffffffffffffffffffff1690806008015490806009015f9054906101000a900473ffffffffffffffffffffffffffffffffffffffff1690508a565b610f2c611324565b60035f9054906101000a900460ff1615610f7b576040517f08c379a0000000000000000000000000000000000000000000000000000000008152600401610f729061246c565b60405180910390fd5b5f60405180610140016040528060025481526020016001151581526020018681526020018581526020018481526020018381526020014281526020013373ffffffffffffffffffffffffffffffffffffffff1681526020014281526020013373ffffffffffffffffffffffffffffffffffffffff1681525090508060015f60025481526020019081526020015f205f820151815f01556020820151816001015f6101000a81548160ff02191690831515021790555060408201518160020190816110459190612627565b50606082015181600301908161105b9190612627565b5060808201518160040190816110719190612627565b5060a08201518160050190816110879190612627565b5060c0820151816006015560e0820151816007015f6101000a81548173ffffffffffffffffffffffffffffffffffffffff021916908373ffffffffffffffffffffffffffffffffffffffff1602179055506101008201518160080155610120820151816009015f6101000a81548173ffffffffffffffffffffffffffffffffffffffff021916908373ffffffffffffffffffffffffffffffffffffffff1602179055509050507faed837f582e1211194de4f65621cfe69bd4d282ebba5cc38c5b2f900206322e2600254846040516111609291906126f6565b60405180910390a160025f81548092919061117a906128dc565b91905055505050505050565b61118e611324565b5f73ffffffffffffffffffffffffffffffffffffffff168173ffffffffffffffffffffffffffffffffffffffff16036111fc576040517f08c379a00000000000000000000000000000000000000000000000000000000081526004016111f390612993565b60405180910390fd5b611205816118d6565b50565b611210611324565b60035f9054906101000a900460ff161561125f576040517f08c379a00000000000000000000000000000000000000000000000000000000081526004016112569061246c565b60405180910390fd5b60015f8281526020019081526020015f206001015f9054906101000a900460ff166112bf576040517f08c379a00000000000000000000000000000000000000000000000000000000081526004016112b6906123a7565b60405180910390fd5b5f60015f8381526020019081526020015f206001015f6101000a81548160ff0219169083151502179055507fbdc5f307127ee49be7848b431e1fe06bfcd681e3a7ee8b050febfc95c48d973c816040516113199190611a31565b60405180910390a150565b61132c611997565b73ffffffffffffffffffffffffffffffffffffffff1661134a610a7c565b73ffffffffffffffffffffffffffffffffffffffff16146113a0576040517f08c379a0000000000000000000000000000000000000000000000000000000008152600401611397906129fb565b60405180910390fd5b565b60605f80600190505b60025481101561145d5760015f8281526020019081526020015f206001015f9054906101000a900460ff168015611436575060405180602001604052805f81525080519060200120848051906020012014806114355750838051906020012060015f8381526020019081526020015f2060030160405161142b9190612ab5565b6040518091039020145b5b1561144a578180611446906128dc565b9250505b8080611455906128dc565b9150506113ab565b505f8167ffffffffffffffff81111561147957611478611cb6565b5b6040519080825280602002602001820160405280156114b257816020015b61149f61199e565b8152602001906001900390816114975790505b5090505f80600190505b6002548110156118ca5760015f8281526020019081526020015f206001015f9054906101000a900460ff168015611547575060405180602001604052805f81525080519060200120868051906020012014806115465750858051906020012060015f8381526020019081526020015f2060030160405161153c9190612ab5565b6040518091039020145b5b156118b75760015f8281526020019081526020015f20604051806101400160405290815f8201548152602001600182015f9054906101000a900460ff1615151515815260200160028201805461159c906123f2565b80601f01602080910402602001604051908101604052809291908181526020018280546115c8906123f2565b80156116135780601f106115ea57610100808354040283529160200191611613565b820191905f5260205f20905b8154815290600101906020018083116115f657829003601f168201915b5050505050815260200160038201805461162c906123f2565b80601f0160208091040260200160405190810160405280929190818152602001828054611658906123f2565b80156116a35780601f1061167a576101008083540402835291602001916116a3565b820191905f5260205f20905b81548152906001019060200180831161168657829003601f168201915b505050505081526020016004820180546116bc906123f2565b80601f01602080910402602001604051908101604052809291908181526020018280546116e8906123f2565b80156117335780601f1061170a57610100808354040283529160200191611733565b820191905f5260205f20905b81548152906001019060200180831161171657829003601f168201915b5050505050815260200160058201805461174c906123f2565b80601f0160208091040260200160405190810160405280929190818152602001828054611778906123f2565b80156117c35780601f1061179a576101008083540402835291602001916117c3565b820191905f5260205f20905b8154815290600101906020018083116117a657829003601f168201915b5050505050815260200160068201548152602001600782015f9054906101000a900473ffffffffffffffffffffffffffffffffffffffff1673ffffffffffffffffffffffffffffffffffffffff1673ffffffffffffffffffffffffffffffffffffffff16815260200160088201548152602001600982015f9054906101000a900473ffffffffffffffffffffffffffffffffffffffff1673ffffffffffffffffffffffffffffffffffffffff1673ffffffffffffffffffffffffffffffffffffffff168152505083838151811061189d5761189c612acb565b5b602002602001018190525081806118b3906128dc565b9250505b80806118c2906128dc565b9150506114bc565b50819350505050919050565b5f805f9054906101000a900473ffffffffffffffffffffffffffffffffffffffff169050815f806101000a81548173ffffffffffffffffffffffffffffffffffffffff021916908373ffffffffffffffffffffffffffffffffffffffff1602179055508173ffffffffffffffffffffffffffffffffffffffff168173ffffffffffffffffffffffffffffffffffffffff167f8be0079c531659141344cd1fd0a4f28419497f9722a3daafe3b4186f6b6457e060405160405180910390a35050565b5f33905090565b6040518061014001604052805f81526020015f15158152602001606081526020016060815260200160608152602001606081526020015f81526020015f73ffffffffffffffffffffffffffffffffffffffff1681526020015f81526020015f73ffffffffffffffffffffffffffffffffffffffff1681525090565b5f819050919050565b611a2b81611a19565b82525050565b5f602082019050611a445f830184611a22565b92915050565b5f604051905090565b5f80fd5b5f80fd5b611a6481611a19565b8114611a6e575f80fd5b50565b5f81359050611a7f81611a5b565b92915050565b5f60208284031215611a9a57611a99611a53565b5b5f611aa784828501611a71565b91505092915050565b611ab981611a19565b82525050565b5f8115159050919050565b611ad381611abf565b82525050565b5f81519050919050565b5f82825260208201905092915050565b5f5b83811015611b10578082015181840152602081019050611af5565b5f8484015250505050565b5f601f19601f8301169050919050565b5f611b3582611ad9565b611b3f8185611ae3565b9350611b4f818560208601611af3565b611b5881611b1b565b840191505092915050565b5f73ffffffffffffffffffffffffffffffffffffffff82169050919050565b5f611b8c82611b63565b9050919050565b611b9c81611b82565b82525050565b5f61014083015f830151611bb85f860182611ab0565b506020830151611bcb6020860182611aca565b5060408301518482036040860152611be38282611b2b565b91505060608301518482036060860152611bfd8282611b2b565b91505060808301518482036080860152611c178282611b2b565b91505060a083015184820360a0860152611c318282611b2b565b91505060c0830151611c4660c0860182611ab0565b5060e0830151611c5960e0860182611b93565b50610100830151611c6e610100860182611ab0565b50610120830151611c83610120860182611b93565b508091505092915050565b5f6020820190508181035f830152611ca68184611ba2565b905092915050565b5f80fd5b5f80fd5b7f4e487b71000000000000000000000000000000000000000000000000000000005f52604160045260245ffd5b611cec82611b1b565b810181811067ffffffffffffffff82111715611d0b57611d0a611cb6565b5b80604052505050565b5f611d1d611a4a565b9050611d298282611ce3565b919050565b5f67ffffffffffffffff821115611d4857611d47611cb6565b5b611d5182611b1b565b9050602081019050919050565b828183375f83830152505050565b5f611d7e611d7984611d2e565b611d14565b905082815260208101848484011115611d9a57611d99611cb2565b5b611da5848285611d5e565b509392505050565b5f82601f830112611dc157611dc0611cae565b5b8135611dd1848260208601611d6c565b91505092915050565b5f8060408385031215611df057611def611a53565b5b5f611dfd85828601611a71565b925050602083013567ffffffffffffffff811115611e1e57611e1d611a57565b5b611e2a85828601611dad565b9150509250929050565b5f81519050919050565b5f82825260208201905092915050565b5f819050602082019050919050565b5f61014083015f830151611e735f860182611ab0565b506020830151611e866020860182611aca565b5060408301518482036040860152611e9e8282611b2b565b91505060608301518482036060860152611eb88282611b2b565b91505060808301518482036080860152611ed28282611b2b565b91505060a083015184820360a0860152611eec8282611b2b565b91505060c0830151611f0160c0860182611ab0565b5060e0830151611f1460e0860182611b93565b50610100830151611f29610100860182611ab0565b50610120830151611f3e610120860182611b93565b508091505092915050565b5f611f548383611e5d565b905092915050565b5f602082019050919050565b5f611f7282611e34565b611f7c8185611e3e565b935083602082028501611f8e85611e4e565b805f5b85811015611fc95784840389528151611faa8582611f49565b9450611fb583611f5c565b925060208a01995050600181019050611f91565b50829750879550505050505092915050565b5f6020820190508181035f830152611ff38184611f68565b905092915050565b5f602082840312156120105761200f611a53565b5b5f82013567ffffffffffffffff81111561202d5761202c611a57565b5b61203984828501611dad565b91505092915050565b61204b81611abf565b82525050565b5f6020820190506120645f830184612042565b92915050565b5f61207482611b82565b9050919050565b6120848161206a565b811461208e575f80fd5b50565b5f8135905061209f8161207b565b92915050565b5f602082840312156120ba576120b9611a53565b5b5f6120c784828501612091565b91505092915050565b6120d981611b82565b82525050565b5f6020820190506120f25f8301846120d0565b92915050565b5f806040838503121561210e5761210d611a53565b5b5f61211b85828601612091565b925050602061212c85828601611a71565b9150509250929050565b5f82825260208201905092915050565b5f61215082611ad9565b61215a8185612136565b935061216a818560208601611af3565b61217381611b1b565b840191505092915050565b5f610140820190506121925f83018d611a22565b61219f602083018c612042565b81810360408301526121b1818b612146565b905081810360608301526121c5818a612146565b905081810360808301526121d98189612146565b905081810360a08301526121ed8188612146565b90506121fc60c0830187611a22565b61220960e08301866120d0565b612217610100830185611a22565b6122256101208301846120d0565b9b9a5050505050505050505050565b5f805f806080858703121561224c5761224b611a53565b5b5f85013567ffffffffffffffff81111561226957612268611a57565b5b61227587828801611dad565b945050602085013567ffffffffffffffff81111561229657612295611a57565b5b6122a287828801611dad565b935050604085013567ffffffffffffffff8111156122c3576122c2611a57565b5b6122cf87828801611dad565b925050606085013567ffffffffffffffff8111156122f0576122ef611a57565b5b6122fc87828801611dad565b91505092959194509250565b61231181611b82565b811461231b575f80fd5b50565b5f8135905061232c81612308565b92915050565b5f6020828403121561234757612346611a53565b5b5f6123548482850161231e565b91505092915050565b7f436f6e74656e7420646f6573206e6f74206578697374000000000000000000005f82015250565b5f612391601683612136565b915061239c8261235d565b602082019050919050565b5f6020820190508181035f8301526123be81612385565b9050919050565b7f4e487b71000000000000000000000000000000000000000000000000000000005f52602260045260245ffd5b5f600282049050600182168061240957607f821691505b60208210810361241c5761241b6123c5565b5b50919050565b7f436f6e74726163742069732070726f74656374656400000000000000000000005f82015250565b5f612456601583612136565b915061246182612422565b602082019050919050565b5f6020820190508181035f8301526124838161244a565b9050919050565b5f819050815f5260205f209050919050565b5f6020601f8301049050919050565b5f82821b905092915050565b5f600883026124e67fffffffffffffffffffffffffffffffffffffffffffffffffffffffffffffffff826124ab565b6124f086836124ab565b95508019841693508086168417925050509392505050565b5f819050919050565b5f61252b61252661252184611a19565b612508565b611a19565b9050919050565b5f819050919050565b61254483612511565b61255861255082612532565b8484546124b7565b825550505050565b5f90565b61256c612560565b61257781848461253b565b505050565b5b8181101561259a5761258f5f82612564565b60018101905061257d565b5050565b601f8211156125df576125b08161248a565b6125b98461249c565b810160208510156125c8578190505b6125dc6125d48561249c565b83018261257c565b50505b505050565b5f82821c905092915050565b5f6125ff5f19846008026125e4565b1980831691505092915050565b5f61261783836125f0565b9150826002028217905092915050565b61263082611ad9565b67ffffffffffffffff81111561264957612648611cb6565b5b61265382546123f2565b61265e82828561259e565b5f60209050601f83116001811461268f575f841561267d578287015190505b612687858261260c565b8655506126ee565b601f19841661269d8661248a565b5f5b828110156126c45784890151825560018201915060208501945060208101905061269f565b868310156126e157848901516126dd601f8916826125f0565b8355505b6001600288020188555050505b505050505050565b5f6040820190506127095f830185611a22565b818103602083015261271b8184612146565b90509392505050565b5f8151905061273281611a5b565b92915050565b5f6020828403121561274d5761274c611a53565b5b5f61275a84828501612724565b91505092915050565b5f6040820190506127765f8301856120d0565b6127836020830184611a22565b9392505050565b61279381611abf565b811461279d575f80fd5b50565b5f815190506127ae8161278a565b92915050565b5f602082840312156127c9576127c8611a53565b5b5f6127d6848285016127a0565b91505092915050565b5f6060820190506127f25f8301866120d0565b6127ff60208301856120d0565b61280c6040830184611a22565b949350505050565b7f4e487b71000000000000000000000000000000000000000000000000000000005f52601160045260245ffd5b5f61284b82611a19565b915061285683611a19565b925082820390508181111561286e5761286d612814565b5b92915050565b7f5472616e7366657220616d6f756e7420646f65736e2774206d617463680000005f82015250565b5f6128a8601d83612136565b91506128b382612874565b602082019050919050565b5f6020820190508181035f8301526128d58161289c565b9050919050565b5f6128e682611a19565b91507fffffffffffffffffffffffffffffffffffffffffffffffffffffffffffffffff820361291857612917612814565b5b600182019050919050565b7f4f776e61626c653a206e6577206f776e657220697320746865207a65726f20615f8201527f6464726573730000000000000000000000000000000000000000000000000000602082015250565b5f61297d602683612136565b915061298882612923565b604082019050919050565b5f6020820190508181035f8301526129aa81612971565b9050919050565b7f4f776e61626c653a2063616c6c6572206973206e6f7420746865206f776e65725f82015250565b5f6129e5602083612136565b91506129f0826129b1565b602082019050919050565b5f6020820190508181035f830152612a12816129d9565b9050919050565b5f81905092915050565b5f819050815f5260205f209050919050565b5f8154612a41816123f2565b612a4b8186612a19565b9450600182165f8114612a655760018114612a7a57612aac565b60ff1983168652811515820286019350612aac565b612a8385612a23565b5f5b83811015612aa457815481890152600182019150602081019050612a85565b838801955050505b50505092915050565b5f612ac08284612a35565b915081905092915050565b7f4e487b71000000000000000000000000000000000000000000000000000000005f52603260045260245ffdfea26469706673582212205723397c4d0ec7e811fac21fb67b0e451a4c915f0e38556fa4fa4fc3f9c043db64736f6c63430008150033",
  "linkReferences": {},
  "deployedLinkReferences": {}
}